:1000000064002500030A6400050A7100FE0C3F002D
:100010001F026501950C0200000C0600410C270030
:10002000FF0C2100130A020C3F001F02A601270546
:10003000110CFE091202FE0908023200120C920095
:100040000306230A240A2D0A31024307280A290A33
:100050002D0A7100B10246052D0A150C9200030706
:10006000320A330A130A11024307370A130A7100CE
:10007000FB0C3F001F026601130A130A130A020A4F
:1000800030004D0A460C2100460A460A0102430789
:100090004A0A4B0A460A4D0A4D0A010CB0001002EA
:0E00A000FF0F4307540A550A420A560A000889
:0201FC00400AB7
:021FFE00F8FFEA
:00000001FF
